{
  "contractName": "Wallet",
  "abi": [
    {
      "inputs": [
        {
          "internalType": "address[]",
          "name": "_approvers",
          "type": "address[]"
        },
        {
          "internalType": "uint256",
          "name": "_quorum",
          "type": "uint256"
        }
      ],
      "stateMutability": "nonpayable",
      "type": "constructor"
    },
    {
      "inputs": [
        {
          "internalType": "address",
          "name": "",
          "type": "address"
        },
        {
          "internalType": "uint256",
          "name": "",
          "type": "uint256"
        }
      ],
      "name": "approvalsMap",
      "outputs": [
        {
          "internalType": "bool",
          "name": "",
          "type": "bool"
        }
      ],
      "stateMutability": "view",
      "type": "function",
      "constant": true
    },
    {
      "inputs": [
        {
          "internalType": "uint256",
          "name": "",
          "type": "uint256"
        }
      ],
      "name": "approvers",
      "outputs": [
        {
          "internalType": "address",
          "name": "",
          "type": "address"
        }
      ],
      "stateMutability": "view",
      "type": "function",
      "constant": true
    },
    {
      "inputs": [],
      "name": "quorum",
      "outputs": [
        {
          "internalType": "uint256",
          "name": "",
          "type": "uint256"
        }
      ],
      "stateMutability": "view",
      "type": "function",
      "constant": true
    },
    {
      "inputs": [
        {
          "internalType": "uint256",
          "name": "",
          "type": "uint256"
        }
      ],
      "name": "transfers",
      "outputs": [
        {
          "internalType": "uint256",
          "name": "id",
          "type": "uint256"
        },
        {
          "internalType": "uint256",
          "name": "amount",
          "type": "uint256"
        },
        {
          "internalType": "address payable",
          "name": "to",
          "type": "address"
        },
        {
          "internalType": "uint256",
          "name": "approvals",
          "type": "uint256"
        },
        {
          "internalType": "bool",
          "name": "sent",
          "type": "bool"
        }
      ],
      "stateMutability": "view",
      "type": "function",
      "constant": true
    },
    {
      "stateMutability": "payable",
      "type": "receive",
      "payable": true
    },
    {
      "inputs": [],
      "name": "getApprovers",
      "outputs": [
        {
          "internalType": "address[]",
          "name": "",
          "type": "address[]"
        }
      ],
      "stateMutability": "view",
      "type": "function",
      "constant": true
    },
    {
      "inputs": [],
      "name": "getTransfers",
      "outputs": [
        {
          "components": [
            {
              "internalType": "uint256",
              "name": "id",
              "type": "uint256"
            },
            {
              "internalType": "uint256",
              "name": "amount",
              "type": "uint256"
            },
            {
              "internalType": "address payable",
              "name": "to",
              "type": "address"
            },
            {
              "internalType": "uint256",
              "name": "approvals",
              "type": "uint256"
            },
            {
              "internalType": "bool",
              "name": "sent",
              "type": "bool"
            }
          ],
          "internalType": "struct Wallet.Transfer[]",
          "name": "",
          "type": "tuple[]"
        }
      ],
      "stateMutability": "view",
      "type": "function",
      "constant": true
    },
    {
      "inputs": [
        {
          "internalType": "uint256",
          "name": "amount",
          "type": "uint256"
        },
        {
          "internalType": "address payable",
          "name": "to",
          "type": "address"
        }
      ],
      "name": "createTransfer",
      "outputs": [],
      "stateMutability": "nonpayable",
      "type": "function"
    },
    {
      "inputs": [
        {
          "internalType": "uint256",
          "name": "id",
          "type": "uint256"
        }
      ],
      "name": "approveTransfer",
      "outputs": [],
      "stateMutability": "nonpayable",
      "type": "function"
    }
  ],
  "bytecode": "0x60806040523480156200001157600080fd5b506040516200133a3803806200133a8339818101604052620000379190810190620001ef565b81600090805190602001906200004f9291906200005f565b5080600181905550505062000312565b828054828255906000526020600020908101928215620000db579160200282015b82811115620000da5782518260006101000a81548173ffffffffffffffffffffffffffffffffffffffff021916908373ffffffffffffffffffffffffffffffffffffffff1602179055509160200191906001019062000080565b5b509050620000ea9190620000ee565b5090565b6200013191905b808211156200012d57600081816101000a81549073ffffffffffffffffffffffffffffffffffffffff021916905550600101620000f5565b5090565b90565b6000815190506200014581620002de565b92915050565b600082601f8301126200015d57600080fd5b8151620001746200016e8262000277565b62000249565b915081818352602084019350602081019050838560208402820111156200019a57600080fd5b60005b83811015620001ce5781620001b3888262000134565b8452602084019350602083019250506001810190506200019d565b5050505092915050565b600081519050620001e981620002f8565b92915050565b600080604083850312156200020357600080fd5b600083015167ffffffffffffffff8111156200021e57600080fd5b6200022c858286016200014b565b92505060206200023f85828601620001d8565b9150509250929050565b6000604051905081810181811067ffffffffffffffff821117156200026d57600080fd5b8060405250919050565b600067ffffffffffffffff8211156200028f57600080fd5b602082029050602081019050919050565b6000620002ad82620002b4565b9050919050565b600073ffffffffffffffffffffffffffffffffffffffff82169050919050565b6000819050919050565b620002e981620002a0565b8114620002f557600080fd5b50565b6200030381620002d4565b81146200030f57600080fd5b50565b61101880620003226000396000f3fe60806040526004361061007f5760003560e01c80636cb3e8ef1161004e5780636cb3e8ef146101475780639377d71114610172578063cacca4a0146101b3578063d3650fb8146101dc57610086565b80631703a0181461008b5780632f65142c146100b657806345eab7aa146100e15780634c12fa471461011e57610086565b3661008657005b600080fd5b34801561009757600080fd5b506100a0610219565b6040516100ad9190610e52565b60405180910390f35b3480156100c257600080fd5b506100cb61021f565b6040516100d89190610db5565b60405180910390f35b3480156100ed57600080fd5b5061010860048036036101039190810190610a25565b61030d565b6040516101159190610dd7565b60405180910390f35b34801561012a57600080fd5b5061014560048036036101409190810190610a8a565b61033c565b005b34801561015357600080fd5b5061015c610513565b6040516101699190610d93565b60405180910390f35b34801561017e57600080fd5b5061019960048036036101949190810190610a61565b6105a1565b6040516101aa959493929190610e6d565b60405180910390f35b3480156101bf57600080fd5b506101da60048036036101d59190810190610a61565b610611565b005b3480156101e857600080fd5b5061020360048036036101fe9190810190610a61565b6109aa565b6040516102109190610d78565b60405180910390f35b60015481565b60606002805480602002602001604051908101604052809291908181526020016000905b8282101561030457838290600052602060002090600502016040518060a001604052908160008201548152602001600182015481526020016002820160009054906101000a900473ffffffffffffffffffffffffffffffffffffffff1673ffffffffffffffffffffffffffffffffffffffff1673ffffffffffffffffffffffffffffffffffffffff168152602001600382015481526020016004820160009054906101000a900460ff16151515158152505081526020019060010190610243565b50505050905090565b60036020528160005260406000206020528060005260406000206000915091509054906101000a900460ff1681565b600080905060005b6000805490508110156103ce573373ffffffffffffffffffffffffffffffffffffffff166000828154811061037557fe5b9060005260206000200160009054906101000a900473ffffffffffffffffffffffffffffffffffffffff1673ffffffffffffffffffffffffffffffffffffffff1614156103c157600191505b8080600101915050610344565b506001151581151514610416576040517f08c379a000000000000000000000000000000000000000000000000000000000815260040161040d90610e12565b60405180910390fd5b60026040518060a0016040528060028054905081526020018581526020018473ffffffffffffffffffffffffffffffffffffffff16815260200160008152602001600015158152509080600181540180825580915050600190039060005260206000209060050201600090919091909150600082015181600001556020820151816001015560408201518160020160006101000a81548173ffffffffffffffffffffffffffffffffffffffff021916908373ffffffffffffffffffffffffffffffffffffffff1602179055506060820151816003015560808201518160040160006101000a81548160ff0219169083151502179055505050505050565b6060600080548060200260200160405190810160405280929190818152602001828054801561059757602002820191906000526020600020905b8160009054906101000a900473ffffffffffffffffffffffffffffffffffffffff1673ffffffffffffffffffffffffffffffffffffffff168152602001906001019080831161054d575b5050505050905090565b600281815481106105ae57fe5b90600052602060002090600502016000915090508060000154908060010154908060020160009054906101000a900473ffffffffffffffffffffffffffffffffffffffff16908060030154908060040160009054906101000a900460ff16905085565b600080905060005b6000805490508110156106a3573373ffffffffffffffffffffffffffffffffffffffff166000828154811061064a57fe5b9060005260206000200160009054906101000a900473ffffffffffffffffffffffffffffffffffffffff1673ffffffffffffffffffffffffffffffffffffffff16141561069657600191505b8080600101915050610619565b5060011515811515146106eb576040517f08c379a00000000000000000000000000000000000000000000000000000000081526004016106e290610e12565b60405180910390fd5b60001515600283815481106106fc57fe5b906000526020600020906005020160040160009054906101000a900460ff1615151461075d576040517f08c379a000000000000000000000000000000000000000000000000000000000815260040161075490610df2565b60405180910390fd5b60001515600360003373ffffffffffffffffffffffffffffffffffffffff1673ffffffffffffffffffffffffffffffffffffffff168152602001908152602001600020600084815260200190815260200160002060009054906101000a900460ff16151514610801576040517f08c379a00000000000000000000000000000000000000000000000000000000081526004016107f890610e32565b60405180910390fd5b6001600360003373ffffffffffffffffffffffffffffffffffffffff1673ffffffffffffffffffffffffffffffffffffffff168152602001908152602001600020600084815260200190815260200160002060006101000a81548160ff0219169083151502179055506002828154811061087757fe5b906000526020600020906005020160030160008154809291906001019190505550600154600283815481106108a857fe5b906000526020600020906005020160030154106109a6576001600283815481106108ce57fe5b906000526020600020906005020160040160006101000a81548160ff02191690831515021790555060006002838154811061090557fe5b906000526020600020906005020160020160009054906101000a900473ffffffffffffffffffffffffffffffffffffffff16905060006002848154811061094857fe5b90600052602060002090600502016001015490508173ffffffffffffffffffffffffffffffffffffffff166108fc829081150290604051600060405180830381858888f193505050501580156109a2573d6000803e3d6000fd5b5050505b5050565b600081815481106109b757fe5b906000526020600020016000915054906101000a900473ffffffffffffffffffffffffffffffffffffffff1681565b6000813590506109f581610f9d565b92915050565b600081359050610a0a81610fb4565b92915050565b600081359050610a1f81610fcb565b92915050565b60008060408385031215610a3857600080fd5b6000610a46858286016109e6565b9250506020610a5785828601610a10565b9150509250929050565b600060208284031215610a7357600080fd5b6000610a8184828501610a10565b91505092915050565b60008060408385031215610a9d57600080fd5b6000610aab85828601610a10565b9250506020610abc858286016109fb565b9150509250929050565b6000610ad28383610b14565b60208301905092915050565b6000610aea8383610cf2565b60a08301905092915050565b610aff81610f55565b82525050565b610b0e81610f55565b82525050565b610b1d81610f43565b82525050565b610b2c81610f43565b82525050565b6000610b3d82610ee0565b610b478185610f10565b9350610b5283610ec0565b8060005b83811015610b83578151610b6a8882610ac6565b9750610b7583610ef6565b925050600181019050610b56565b5085935050505092915050565b6000610b9b82610eeb565b610ba58185610f21565b9350610bb083610ed0565b8060005b83811015610be1578151610bc88882610ade565b9750610bd383610f03565b925050600181019050610bb4565b5085935050505092915050565b610bf781610f67565b82525050565b610c0681610f67565b82525050565b6000610c19601e83610f32565b91507f7472616e736665722068617320616c7265616479206265656e2073656e7400006000830152602082019050919050565b6000610c59601583610f32565b91507f6f6e6c7920617070726f76657220616c6c6f77656400000000000000000000006000830152602082019050919050565b6000610c99602b83610f32565b91507f617070726f7665722068617320616c726561647920617070726f76656420746860008301527f6973207472616e736665720000000000000000000000000000000000000000006020830152604082019050919050565b60a082016000820151610d086000850182610d5a565b506020820151610d1b6020850182610d5a565b506040820151610d2e6040850182610af6565b506060820151610d416060850182610d5a565b506080820151610d546080850182610bee565b50505050565b610d6381610f93565b82525050565b610d7281610f93565b82525050565b6000602082019050610d8d6000830184610b23565b92915050565b60006020820190508181036000830152610dad8184610b32565b905092915050565b60006020820190508181036000830152610dcf8184610b90565b905092915050565b6000602082019050610dec6000830184610bfd565b92915050565b60006020820190508181036000830152610e0b81610c0c565b9050919050565b60006020820190508181036000830152610e2b81610c4c565b9050919050565b60006020820190508181036000830152610e4b81610c8c565b9050919050565b6000602082019050610e676000830184610d69565b92915050565b600060a082019050610e826000830188610d69565b610e8f6020830187610d69565b610e9c6040830186610b05565b610ea96060830185610d69565b610eb66080830184610bfd565b9695505050505050565b6000819050602082019050919050565b6000819050602082019050919050565b600081519050919050565b600081519050919050565b6000602082019050919050565b6000602082019050919050565b600082825260208201905092915050565b600082825260208201905092915050565b600082825260208201905092915050565b6000610f4e82610f73565b9050919050565b6000610f6082610f73565b9050919050565b60008115159050919050565b600073ffffffffffffffffffffffffffffffffffffffff82169050919050565b6000819050919050565b610fa681610f43565b8114610fb157600080fd5b50565b610fbd81610f55565b8114610fc857600080fd5b50565b610fd481610f93565b8114610fdf57600080fd5b5056fea2646970667358221220a4bef6d7a34f2c7805e34398b7735bf396ef4f9bcee3b95e80f2164ed03fc52c64736f6c63430006000033",
  "source": "pragma solidity 0.6.0;\npragma experimental ABIEncoderV2;\n\ncontract Wallet {\n    address[] public approvers;\n    uint256 public quorum;\n    struct Transfer {\n        uint256 id;\n        uint256 amount;\n        address payable to;\n        uint256 approvals;\n        bool sent;\n    }\n    Transfer[] public transfers;\n    mapping(address => mapping(uint256 => bool)) public approvalsMap;\n\n    constructor(address[] memory _approvers, uint256 _quorum) public {\n        approvers = _approvers;\n        quorum = _quorum;\n    }\n\n    function getApprovers() external view returns (address[] memory) {\n        return approvers;\n    }\n\n    function getTransfers() external view returns (Transfer[] memory) {\n        return transfers;\n    }\n\n    function createTransfer(uint256 amount, address payable to)\n        external\n        onlyApprover\n    {\n        transfers.push(Transfer(transfers.length, amount, to, 0, false));\n    }\n\n    function approveTransfer(uint256 id) external onlyApprover {\n        require(transfers[id].sent == false, \"transfer has already been sent\");\n        require(\n            approvalsMap[msg.sender][id] == false,\n            \"approver has already approved this transfer\"\n        );\n\n        approvalsMap[msg.sender][id] = true;\n        transfers[id].approvals++;\n\n        if (transfers[id].approvals >= quorum) {\n            transfers[id].sent = true;\n            address payable to = transfers[id].to;\n            uint256 amount = transfers[id].amount;\n            to.transfer(amount);\n        }\n    }\n\n    receive() external payable {}\n\n    modifier onlyApprover() {\n        bool allowed = false;\n        for (uint256 i; i < approvers.length; i++) {\n            if (approvers[i] == msg.sender) {\n                allowed = true;\n            }\n        }\n        require(allowed == true, \"only approver allowed\");\n        _;\n    }\n}\n",
  "sourcePath": "/Users/maximehardy/projects/eattheblocks/etb-multisig-wallet/contracts/Wallet.sol",
  "compiler": {
    "name": "solc",
    "version": "0.6.0+commit.26b70077.Emscripten.clang"
  },
  "schemaVersion": "3.4.4",
  "updatedAt": "2022-01-02T11:46:08.421Z",
  "networkType": "ethereum",
  "devdoc": {
    "methods": {}
  },
  "userdoc": {
    "methods": {}
  }
}