{
  "contractName": "Wallet",
  "abi": [
    {
      "inputs": [
        {
          "internalType": "address[]",
          "name": "_approvers",
          "type": "address[]"
        },
        {
          "internalType": "uint256",
          "name": "_quorum",
          "type": "uint256"
        }
      ],
      "stateMutability": "nonpayable",
      "type": "constructor"
    },
    {
      "inputs": [
        {
          "internalType": "address",
          "name": "",
          "type": "address"
        },
        {
          "internalType": "uint256",
          "name": "",
          "type": "uint256"
        }
      ],
      "name": "approvalsMap",
      "outputs": [
        {
          "internalType": "bool",
          "name": "",
          "type": "bool"
        }
      ],
      "stateMutability": "view",
      "type": "function",
      "constant": true
    },
    {
      "inputs": [
        {
          "internalType": "uint256",
          "name": "",
          "type": "uint256"
        }
      ],
      "name": "approvers",
      "outputs": [
        {
          "internalType": "address",
          "name": "",
          "type": "address"
        }
      ],
      "stateMutability": "view",
      "type": "function",
      "constant": true
    },
    {
      "inputs": [],
      "name": "quorum",
      "outputs": [
        {
          "internalType": "uint256",
          "name": "",
          "type": "uint256"
        }
      ],
      "stateMutability": "view",
      "type": "function",
      "constant": true
    },
    {
      "inputs": [
        {
          "internalType": "uint256",
          "name": "",
          "type": "uint256"
        }
      ],
      "name": "transfers",
      "outputs": [
        {
          "internalType": "uint256",
          "name": "id",
          "type": "uint256"
        },
        {
          "internalType": "uint256",
          "name": "amount",
          "type": "uint256"
        },
        {
          "internalType": "address payable",
          "name": "to",
          "type": "address"
        },
        {
          "internalType": "uint256",
          "name": "approvals",
          "type": "uint256"
        },
        {
          "internalType": "bool",
          "name": "sent",
          "type": "bool"
        }
      ],
      "stateMutability": "view",
      "type": "function",
      "constant": true
    },
    {
      "stateMutability": "payable",
      "type": "receive",
      "payable": true
    },
    {
      "inputs": [],
      "name": "getApprovers",
      "outputs": [
        {
          "internalType": "address[]",
          "name": "",
          "type": "address[]"
        }
      ],
      "stateMutability": "view",
      "type": "function",
      "constant": true
    },
    {
      "inputs": [],
      "name": "getTransfers",
      "outputs": [
        {
          "components": [
            {
              "internalType": "uint256",
              "name": "id",
              "type": "uint256"
            },
            {
              "internalType": "uint256",
              "name": "amount",
              "type": "uint256"
            },
            {
              "internalType": "address payable",
              "name": "to",
              "type": "address"
            },
            {
              "internalType": "uint256",
              "name": "approvals",
              "type": "uint256"
            },
            {
              "internalType": "bool",
              "name": "sent",
              "type": "bool"
            }
          ],
          "internalType": "struct Wallet.Transfer[]",
          "name": "",
          "type": "tuple[]"
        }
      ],
      "stateMutability": "view",
      "type": "function",
      "constant": true
    },
    {
      "inputs": [
        {
          "internalType": "uint256",
          "name": "amount",
          "type": "uint256"
        },
        {
          "internalType": "address payable",
          "name": "to",
          "type": "address"
        }
      ],
      "name": "createTransfer",
      "outputs": [],
      "stateMutability": "nonpayable",
      "type": "function"
    },
    {
      "inputs": [
        {
          "internalType": "uint256",
          "name": "id",
          "type": "uint256"
        }
      ],
      "name": "approveTransfer",
      "outputs": [],
      "stateMutability": "nonpayable",
      "type": "function"
    }
  ],
  "bytecode": "0x60806040523480156200001157600080fd5b5060405162001553380380620015538339818101604052810190620000379190620001dd565b81600090805190602001906200004f9291906200005f565b508060018190555050506200033b565b828054828255906000526020600020908101928215620000db579160200282015b82811115620000da5782518260006101000a81548173ffffffffffffffffffffffffffffffffffffffff021916908373ffffffffffffffffffffffffffffffffffffffff1602179055509160200191906001019062000080565b5b509050620000ea9190620000ee565b5090565b5b8082111562000109576000816000905550600101620000ef565b5090565b6000620001246200011e846200026b565b62000237565b905080838252602082019050828560208602820111156200014457600080fd5b60005b858110156200017857816200015d888262000182565b84526020840193506020830192505060018101905062000147565b5050509392505050565b600081519050620001938162000307565b92915050565b600082601f830112620001ab57600080fd5b8151620001bd8482602086016200010d565b91505092915050565b600081519050620001d78162000321565b92915050565b60008060408385031215620001f157600080fd5b600083015167ffffffffffffffff8111156200020c57600080fd5b6200021a8582860162000199565b92505060206200022d85828601620001c6565b9150509250929050565b6000604051905081810181811067ffffffffffffffff82111715620002615762000260620002d8565b5b8060405250919050565b600067ffffffffffffffff821115620002895762000288620002d8565b5b602082029050602081019050919050565b6000620002a782620002ae565b9050919050565b600073ffffffffffffffffffffffffffffffffffffffff82169050919050565b6000819050919050565b7f4e487b7100000000000000000000000000000000000000000000000000000000600052604160045260246000fd5b62000312816200029a565b81146200031e57600080fd5b50565b6200032c81620002ce565b81146200033857600080fd5b50565b611208806200034b6000396000f3fe60806040526004361061007f5760003560e01c80636cb3e8ef1161004e5780636cb3e8ef146101475780639377d71114610172578063cacca4a0146101b3578063d3650fb8146101dc57610086565b80631703a0181461008b5780632f65142c146100b657806345eab7aa146100e15780634c12fa471461011e57610086565b3661008657005b600080fd5b34801561009757600080fd5b506100a0610219565b6040516100ad9190610fca565b60405180910390f35b3480156100c257600080fd5b506100cb61021f565b6040516100d89190610f2d565b60405180910390f35b3480156100ed57600080fd5b5061010860048036038101906101039190610b9d565b61030d565b6040516101159190610f4f565b60405180910390f35b34801561012a57600080fd5b5061014560048036038101906101409190610c02565b61033c565b005b34801561015357600080fd5b5061015c610542565b6040516101699190610f0b565b60405180910390f35b34801561017e57600080fd5b5061019960048036038101906101949190610bd9565b6105d0565b6040516101aa959493929190610fe5565b60405180910390f35b3480156101bf57600080fd5b506101da60048036038101906101d59190610bd9565b610643565b005b3480156101e857600080fd5b5061020360048036038101906101fe9190610bd9565b610b1f565b6040516102109190610ef0565b60405180910390f35b60015481565b60606002805480602002602001604051908101604052809291908181526020016000905b8282101561030457838290600052602060002090600502016040518060a001604052908160008201548152602001600182015481526020016002820160009054906101000a900473ffffffffffffffffffffffffffffffffffffffff1673ffffffffffffffffffffffffffffffffffffffff1673ffffffffffffffffffffffffffffffffffffffff168152602001600382015481526020016004820160009054906101000a900460ff16151515158152505081526020019060010190610243565b50505050905090565b60036020528160005260406000206020528060005260406000206000915091509054906101000a900460ff1681565b6000805b6000805490508110156103fd573373ffffffffffffffffffffffffffffffffffffffff166000828154811061039e577f4e487b7100000000000000000000000000000000000000000000000000000000600052603260045260246000fd5b9060005260206000200160009054906101000a900473ffffffffffffffffffffffffffffffffffffffff1673ffffffffffffffffffffffffffffffffffffffff1614156103ea57600191505b80806103f590611115565b915050610340565b506001151581151514610445576040517f08c379a000000000000000000000000000000000000000000000000000000000815260040161043c90610f8a565b60405180910390fd5b60026040518060a0016040528060028054905081526020018581526020018473ffffffffffffffffffffffffffffffffffffffff16815260200160008152602001600015158152509080600181540180825580915050600190039060005260206000209060050201600090919091909150600082015181600001556020820151816001015560408201518160020160006101000a81548173ffffffffffffffffffffffffffffffffffffffff021916908373ffffffffffffffffffffffffffffffffffffffff1602179055506060820151816003015560808201518160040160006101000a81548160ff0219169083151502179055505050505050565b606060008054806020026020016040519081016040528092919081815260200182805480156105c657602002820191906000526020600020905b8160009054906101000a900473ffffffffffffffffffffffffffffffffffffffff1673ffffffffffffffffffffffffffffffffffffffff168152602001906001019080831161057c575b5050505050905090565b600281815481106105e057600080fd5b90600052602060002090600502016000915090508060000154908060010154908060020160009054906101000a900473ffffffffffffffffffffffffffffffffffffffff16908060030154908060040160009054906101000a900460ff16905085565b6000805b600080549050811015610704573373ffffffffffffffffffffffffffffffffffffffff16600082815481106106a5577f4e487b7100000000000000000000000000000000000000000000000000000000600052603260045260246000fd5b9060005260206000200160009054906101000a900473ffffffffffffffffffffffffffffffffffffffff1673ffffffffffffffffffffffffffffffffffffffff1614156106f157600191505b80806106fc90611115565b915050610647565b50600115158115151461074c576040517f08c379a000000000000000000000000000000000000000000000000000000000815260040161074390610f8a565b60405180910390fd5b600015156002838154811061078a577f4e487b7100000000000000000000000000000000000000000000000000000000600052603260045260246000fd5b906000526020600020906005020160040160009054906101000a900460ff161515146107eb576040517f08c379a00000000000000000000000000000000000000000000000000000000081526004016107e290610f6a565b60405180910390fd5b60001515600360003373ffffffffffffffffffffffffffffffffffffffff1673ffffffffffffffffffffffffffffffffffffffff168152602001908152602001600020600084815260200190815260200160002060009054906101000a900460ff1615151461088f576040517f08c379a000000000000000000000000000000000000000000000000000000000815260040161088690610faa565b60405180910390fd5b6001600360003373ffffffffffffffffffffffffffffffffffffffff1673ffffffffffffffffffffffffffffffffffffffff168152602001908152602001600020600084815260200190815260200160002060006101000a81548160ff02191690831515021790555060028281548110610932577f4e487b7100000000000000000000000000000000000000000000000000000000600052603260045260246000fd5b9060005260206000209060050201600301600081548092919061095490611115565b919050555060015460028381548110610996577f4e487b7100000000000000000000000000000000000000000000000000000000600052603260045260246000fd5b90600052602060002090600502016003015410610b1b576001600283815481106109e9577f4e487b7100000000000000000000000000000000000000000000000000000000600052603260045260246000fd5b906000526020600020906005020160040160006101000a81548160ff021916908315150217905550600060028381548110610a4d577f4e487b7100000000000000000000000000000000000000000000000000000000600052603260045260246000fd5b906000526020600020906005020160020160009054906101000a900473ffffffffffffffffffffffffffffffffffffffff169050600060028481548110610abd577f4e487b7100000000000000000000000000000000000000000000000000000000600052603260045260246000fd5b90600052602060002090600502016001015490508173ffffffffffffffffffffffffffffffffffffffff166108fc829081150290604051600060405180830381858888f19350505050158015610b17573d6000803e3d6000fd5b5050505b5050565b60008181548110610b2f57600080fd5b906000526020600020016000915054906101000a900473ffffffffffffffffffffffffffffffffffffffff1681565b600081359050610b6d8161118d565b92915050565b600081359050610b82816111a4565b92915050565b600081359050610b97816111bb565b92915050565b60008060408385031215610bb057600080fd5b6000610bbe85828601610b5e565b9250506020610bcf85828601610b88565b9150509250929050565b600060208284031215610beb57600080fd5b6000610bf984828501610b88565b91505092915050565b60008060408385031215610c1557600080fd5b6000610c2385828601610b88565b9250506020610c3485828601610b73565b9150509250929050565b6000610c4a8383610c8c565b60208301905092915050565b6000610c628383610e6a565b60a08301905092915050565b610c77816110cd565b82525050565b610c86816110cd565b82525050565b610c95816110bb565b82525050565b610ca4816110bb565b82525050565b6000610cb582611058565b610cbf8185611088565b9350610cca83611038565b8060005b83811015610cfb578151610ce28882610c3e565b9750610ced8361106e565b925050600181019050610cce565b5085935050505092915050565b6000610d1382611063565b610d1d8185611099565b9350610d2883611048565b8060005b83811015610d59578151610d408882610c56565b9750610d4b8361107b565b925050600181019050610d2c565b5085935050505092915050565b610d6f816110df565b82525050565b610d7e816110df565b82525050565b6000610d91601e836110aa565b91507f7472616e736665722068617320616c7265616479206265656e2073656e7400006000830152602082019050919050565b6000610dd16015836110aa565b91507f6f6e6c7920617070726f76657220616c6c6f77656400000000000000000000006000830152602082019050919050565b6000610e11602b836110aa565b91507f617070726f7665722068617320616c726561647920617070726f76656420746860008301527f6973207472616e736665720000000000000000000000000000000000000000006020830152604082019050919050565b60a082016000820151610e806000850182610ed2565b506020820151610e936020850182610ed2565b506040820151610ea66040850182610c6e565b506060820151610eb96060850182610ed2565b506080820151610ecc6080850182610d66565b50505050565b610edb8161110b565b82525050565b610eea8161110b565b82525050565b6000602082019050610f056000830184610c9b565b92915050565b60006020820190508181036000830152610f258184610caa565b905092915050565b60006020820190508181036000830152610f478184610d08565b905092915050565b6000602082019050610f646000830184610d75565b92915050565b60006020820190508181036000830152610f8381610d84565b9050919050565b60006020820190508181036000830152610fa381610dc4565b9050919050565b60006020820190508181036000830152610fc381610e04565b9050919050565b6000602082019050610fdf6000830184610ee1565b92915050565b600060a082019050610ffa6000830188610ee1565b6110076020830187610ee1565b6110146040830186610c7d565b6110216060830185610ee1565b61102e6080830184610d75565b9695505050505050565b6000819050602082019050919050565b6000819050602082019050919050565b600081519050919050565b600081519050919050565b6000602082019050919050565b6000602082019050919050565b600082825260208201905092915050565b600082825260208201905092915050565b600082825260208201905092915050565b60006110c6826110eb565b9050919050565b60006110d8826110eb565b9050919050565b60008115159050919050565b600073ffffffffffffffffffffffffffffffffffffffff82169050919050565b6000819050919050565b60006111208261110b565b91507fffffffffffffffffffffffffffffffffffffffffffffffffffffffffffffffff8214156111535761115261115e565b5b600182019050919050565b7f4e487b7100000000000000000000000000000000000000000000000000000000600052601160045260246000fd5b611196816110bb565b81146111a157600080fd5b50565b6111ad816110cd565b81146111b857600080fd5b50565b6111c48161110b565b81146111cf57600080fd5b5056fea264697066735822122002b280d0fa15ab65683637282581e9f6cf3d0599543ec028588af64952001e0264736f6c63430008000033",
  "immutableReferences": {},
  "source": "pragma solidity 0.8.0;\n\ncontract Wallet {\n    address[] public approvers;\n    uint256 public quorum;\n    struct Transfer {\n        uint256 id;\n        uint256 amount;\n        address payable to;\n        uint256 approvals;\n        bool sent;\n    }\n    Transfer[] public transfers;\n    mapping(address => mapping(uint256 => bool)) public approvalsMap;\n\n    constructor(address[] memory _approvers, uint256 _quorum) {\n        approvers = _approvers;\n        quorum = _quorum;\n    }\n\n    function getApprovers() external view returns (address[] memory) {\n        return approvers;\n    }\n\n    function getTransfers() external view returns (Transfer[] memory) {\n        return transfers;\n    }\n\n    function createTransfer(uint256 amount, address payable to)\n        external\n        onlyApprover\n    {\n        transfers.push(Transfer(transfers.length, amount, to, 0, false));\n    }\n\n    function approveTransfer(uint256 id) external onlyApprover {\n        require(transfers[id].sent == false, \"transfer has already been sent\");\n        require(\n            approvalsMap[msg.sender][id] == false,\n            \"approver has already approved this transfer\"\n        );\n\n        approvalsMap[msg.sender][id] = true;\n        transfers[id].approvals++;\n\n        if (transfers[id].approvals >= quorum) {\n            transfers[id].sent = true;\n            address payable to = transfers[id].to;\n            uint256 amount = transfers[id].amount;\n            to.transfer(amount);\n        }\n    }\n\n    receive() external payable {}\n\n    modifier onlyApprover() {\n        bool allowed = false;\n        for (uint256 i; i < approvers.length; i++) {\n            if (approvers[i] == msg.sender) {\n                allowed = true;\n            }\n        }\n        require(allowed == true, \"only approver allowed\");\n        _;\n    }\n}\n",
  "sourcePath": "/Users/maximehardy/projects/eattheblocks/etb-multisig-wallet/contracts/Wallet.sol",
  "compiler": {
    "name": "solc",
    "version": "0.8.0+commit.c7dfd78e.Emscripten.clang"
  },
  "schemaVersion": "3.4.4",
  "updatedAt": "2022-01-10T14:30:37.025Z",
  "networkType": "ethereum",
  "devdoc": {
    "kind": "dev",
    "methods": {},
    "version": 1
  },
  "userdoc": {
    "kind": "user",
    "methods": {},
    "version": 1
  }
}